{
  "contractName": "Work4me",
  "abi": [
    {
      "inputs": [],
      "payable": true,
      "stateMutability": "payable",
      "type": "constructor"
    },
    {
      "constant": true,
      "inputs": [],
      "name": "client",
      "outputs": [
        {
          "internalType": "address payable",
          "name": "",
          "type": "address"
        }
      ],
      "payable": false,
      "stateMutability": "view",
      "type": "function"
    },
    {
      "constant": true,
      "inputs": [],
      "name": "manager",
      "outputs": [
        {
          "internalType": "address",
          "name": "",
          "type": "address"
        }
      ],
      "payable": false,
      "stateMutability": "view",
      "type": "function"
    },
    {
      "constant": true,
      "inputs": [],
      "name": "valueTask",
      "outputs": [
        {
          "internalType": "uint256",
          "name": "",
          "type": "uint256"
        }
      ],
      "payable": false,
      "stateMutability": "view",
      "type": "function"
    },
    {
      "constant": false,
      "inputs": [],
      "name": "enter",
      "outputs": [],
      "payable": false,
      "stateMutability": "nonpayable",
      "type": "function"
    },
    {
      "constant": false,
      "inputs": [],
      "name": "finalizeTask",
      "outputs": [],
      "payable": true,
      "stateMutability": "payable",
      "type": "function"
    }
  ],
  "bytecode": "0x6080604052336000806101000a81548173ffffffffffffffffffffffffffffffffffffffff021916908373ffffffffffffffffffffffffffffffffffffffff1602179055503460028190555061034e8061005a6000396000f3fe60806040526004361061004a5760003560e01c8063109e94cf1461004f578063481c6a75146100a6578063a20fca5a146100fd578063ca8b7b5314610107578063e97dcb6214610132575b600080fd5b34801561005b57600080fd5b50610064610149565b604051808273ffffffffffffffffffffffffffffffffffffffff1673ffffffffffffffffffffffffffffffffffffffff16815260200191505060405180910390f35b3480156100b257600080fd5b506100bb61016f565b604051808273ffffffffffffffffffffffffffffffffffffffff1673ffffffffffffffffffffffffffffffffffffffff16815260200191505060405180910390f35b610105610194565b005b34801561011357600080fd5b5061011c610295565b6040518082815260200191505060405180910390f35b34801561013e57600080fd5b5061014761029b565b005b600160009054906101000a900473ffffffffffffffffffffffffffffffffffffffff1681565b6000809054906101000a900473ffffffffffffffffffffffffffffffffffffffff1681565b6000809054906101000a900473ffffffffffffffffffffffffffffffffffffffff1673ffffffffffffffffffffffffffffffffffffffff163373ffffffffffffffffffffffffffffffffffffffff16146101ed57600080fd5b60011515600360009054906101000a900460ff1615151461020d57600080fd5b600160009054906101000a900473ffffffffffffffffffffffffffffffffffffffff1673ffffffffffffffffffffffffffffffffffffffff166108fc6002549081150290604051600060405180830381858888f19350505050158015610277573d6000803e3d6000fd5b506000600360006101000a81548160ff021916908315150217905550565b60025481565b60001515600360009054906101000a900460ff161515146102bb57600080fd5b33600160006101000a81548173ffffffffffffffffffffffffffffffffffffffff021916908373ffffffffffffffffffffffffffffffffffffffff1602179055506001600360006101000a81548160ff02191690831515021790555056fea265627a7a72315820cd40f52bd0eb27f9bf02661ad80c8a0e02d3f91dfe633cb7f5e79fe9b5bc3b7164736f6c63430005100032",
  "source": "pragma solidity ^0.5.14;\n\ncontract Work4me {\n   \n    address public manager;\n    address payable public client;\n    uint public valueTask;\n    bool taskOpen;\n   \n    modifier restricted() {\n        require(msg.sender == manager);\n        _;\n    }\n    constructor() public payable {\n        manager = msg.sender;\n        valueTask = msg.value;\n    }\n    function enter() public {\n        require(taskOpen == false);\n        client = msg.sender;\n        taskOpen = true;\n    }\n    function finalizeTask() public payable restricted {\n        require(taskOpen == true);\n        client.transfer(valueTask);\n        taskOpen = false;\n    }\n}\n",
  "sourcePath": "C:\\Users\\Anderson Melo\\Documents\\MEGA\\UFRPE - MESTRADO\\CURSOS\\Work4me-Celo\\contracts\\Work4me.sol",
  "compiler": {
    "name": "solc",
    "version": "0.5.16+commit.9c3226ce.Emscripten.clang"
  },
  "schemaVersion": "3.0.23",
  "updatedAt": "2020-04-08T21:06:07.480Z",
  "devdoc": {
    "methods": {}
  },
  "userdoc": {
    "methods": {}
  }
}